:020000040800F2
:100000008004002001010008D1030008EB02000871
:10001000CD03000865010008EF0C00080000000097
:100020000000000000000000000000002908000897
:10003000690100080000000031070008190A0008E3
:100040001B0100081B0100081B0100081B01000820
:100050001B0100081B0100081B0100081B01000810
:100060001B0100081B0100081B0100081B01000800
:100070001B0100081B0100081B0100081B010008F0
:100080001B0100081B0100081B0100081B010008E0
:100090001B0100081B0100081B0100081B010008D0
:1000A0001B0100081B0100081B0100081B010008C0
:1000B0001B0100081B0100081B0100081B010008B0
:1000C0001B0100081B0100081B0100081B010008A0
:1000D0001B0100087D0A00081B0100081B01000825
:1000E0001B0100081B0100081B010008DFF80CD0F1
:1000F00000F026F800480047110D00088004002099
:100100000648804706480047FEE7FEE7FEE7FEE7B1
:10011000FEE7FEE7FEE7FEE7FEE7FEE71D0A000852
:10012000ED00000810B5002200E0521C835C8C5CDE
:10013000A34201D1002BF8D1D8B2E1B2401A10BDD0
:10014000064C074D06E0E06840F0010394E8070024
:1001500098471034AC42F6D3FFF7CCFFF8130008F1
:100160001814000800BFFEE7704700B5034603E01F
:100170004FF47A7000F005F8181EA3F10103F7D1CF
:1001800000BD00EBC001C9004FF0E0225161002129
:1001900091610521116100BF4FF0E021096901F46F
:1001A00080310029F8D004214FF0E022116170471E
:1001B0002DE9F041024600250026002000230024FE
:1001C000002791F803C00CF00F0591F803C00CF064
:1001D000100CBCF1000F03D091F802C04CEA0505E9
:1001E00091F800C0BCF1000F31D0146800202BE062
:1001F0004FF0010C0CFA00F3B1F800C00CEA030652
:100200009E4220D183004FF00F0C0CFA03F7BC4341
:1002100005FA03FC4CEA040491F803C0BCF1280F72
:1002200006D14FF0010C0CFA00FCC2F814C00AE031
:1002300091F803C0BCF1480F05D14FF0010C0CFA46
:1002400000FCC2F810C0401C0828D1D31460B1F8DB
:1002500000C0BCF1FF0F34DD546800202EE000F137
:10026000080C4FF0010808FA0CF3B1F800C00CEAD2
:1002700003069E4221D183004FF00F0C0CFA03F7C6
:10028000BC4305FA03FC4CEA040491F803C0BCF13A
:10029000280F05D100F1080C08FA0CF8C2F81480F8
:1002A00091F803C0BCF1480F07D100F1080C4FF0E2
:1002B000010808FA0CF8C2F81080401C0828CED3B8
:1002C0005460BDE8F0810246002093680B400BB1FA
:1002D000012000E0002070474161704701617047D4
:1002E0000AB1016100E04161704700BFFEE7000014
:1002F00010B5002402211448FFF7E5FF68B9142067
:10030000FFF733FF00BF02210F48FFF7DCFF002893
:10031000F9D01420FFF729FF01244FF400610A48A7
:10032000FFF7D1FF70B91420FFF71FFF00BF4FF494
:1003300000610548FFF7C7FF0028F8D01420FFF739
:1003400014FF0224204610BD000C014008B5012115
:10035000082000F0EFF948208DF8030040F6020075
:10036000ADF8000003208DF8020069460148FFF750
:100370001FFF08BD000C014010B504210148FFF724
:10038000ADFF10BD0008014010B504210148FFF782
:10039000A3FF10BD0008014008B50121042000F0B2
:1003A000C9F910208DF803000C20ADF800000320DF
:1003B0008DF8020069460448FFF7FAFE0C21024856
:1003C000FFF78CFF08BD00000008014000BFFEE7FA
:1003D0007047000070B5002100230F22C47804B3D9
:1003E000154C246804F4E064C4F5E064210AC1F10A
:1003F0000403CA40447804FA03F18478144021438A
:1004000009010E4C0678A155047804F01F0501245B
:10041000AC4005786D11AD0005F1E025C5F800414F
:1004200009E0047804F01F050124AC40044D06786F
:10043000761145F8264070BD0CED00E000E400E0C8
:1004400080E100E002490143024A11607047000068
:100450000000FA050CED00E070B500240EE000216C
:10046000204600F0E6F8002504E0002000F050F9F6
:10047000681CC5B2802DF8DB601CC4B2082CEEDB12
:1004800070BD000008B50121082000F053F91420C8
:100490008DF8030003208DF802004FF48070ADF852
:1004A000000069460A48FFF783FE4FF40070ADF87C
:1004B000000069460648FFF77BFE0122110204484E
:1004C000FFF70EFF012251020148FFF709FF08BDA7
:1004D000000C014070B50546002415E08020204145
:1004E00000EA05024FF400710E48FFF7F9FE012201
:1004F00011020C48FFF7F4FE00224FF48071094806
:10050000FFF7EEFE601CC4B2082CE7DB01221102EB
:100510000448FFF7E5FE00224FF480710148FFF721
:10052000DFFE70BD000C014010B5012251020A48E7
:10053000FFF7D6FE012211020748FFF7D1FE002285
:100540004FF400710448FFF7CBFE00224FF4807196
:100550000148FFF7C5FE10BD000C014010B5002298
:100560004FF400710648FFF7BBFE01221102044858
:10057000FFF7B6FE012251020148FFF7B1FE10BDA0
:10058000000C014070B5002406E0002500E06D1C61
:10059000B5F57A7FFBD3641CB4F57A7FF5D3FFF70A
:1005A00071FFAE2000F0A4F8D52000F0A1F8802063
:1005B00000F09EF8A82000F09BF83F2000F098F88B
:1005C000D32000F095F8002000F092F8402000F0D1
:1005D0008FF8A12000F08CF8C82000F089F8DA200C
:1005E00000F086F8122000F083F8812000F080F8F7
:1005F000CF2000F07DF8D92000F07AF8F12000F04B
:1006000077F8DB2000F074F8302000F071F8A420B7
:1006100000F06EF8A62000F06BF88D2000F068F86E
:10062000142000F065F8AF2000F062F8FFF714FF27
:1006300070BD70B505460C4645F0B00000F058F8A6
:10064000102141EA141000F053F804F00F0000F0FC
:100650004FF870BD2DE9F04105460E461746721E53
:10066000D206110E6A1E5206100EFFF7E2FF00249A
:1006700009E0A7F12001134A02EB0111085D00F027
:1006800047F8601CC4B2082CF3DB721ED206110EB0
:100690006A1E012303EB4202D0B2FFF7CAFF002417
:1006A0000BE0A7F12001074A02EB011204F1080157
:1006B000505C00F02DF8601CC4B2082CF1DBBDE8E2
:1006C000F0810000080E00082DE9F04107460E46B3
:1006D0001546002407E02A5D3019C1B23846FFF7FD
:1006E000B9FF601CC4B2285D0028F4D1BDE8F081D8
:1006F00010B50446FFF718FF7820FFF7EBFE002047
:10070000FFF7E8FE2046FFF7E5FEFFF727FF10BDE5
:1007100010B50446FFF708FF7820FFF7DBFE402006
:10072000FFF7D8FE2046FFF7D5FEFFF717FF10BDF5
:100730007047000029B1064A92690243044B9A614E
:1007400004E0034A92698243014B9A6170470000BA
:100750000010024030B500210022002400232D4D5E
:100760006D6805F00C0121B1042905D0082923D1B9
:1007700005E0294D056022E0274D05601FE0254D6D
:100780006D6805F47012234D6D6805F48034022500
:1007900005EB92421CB9214D554305600BE01D4D00
:1007A0006D6805F400351DB11C4D5543056002E030
:1007B000194D5543056002E0174D056000BF00BFAD
:1007C000144D6D6805F0F0010909154D6B5C056865
:1007D000DD4045600F4D6D6805F4E061090A104D7C
:1007E0006B5C4568DD4085600A4D6D6805F46051BD
:1007F000C90A0B4D6B5C4568DD40C560054D6D68F1
:1008000005F44041890B074D6B5CC568B5FBF3F5FA
:10081000056130BD0010024000127A0000093D0061
:1008200000000020100000207047000005490978F2
:10083000012900D100E0002108460021014A117081
:10084000704700001400002000B587B00121880324
:10085000FFF770FF01210420FFF76CFF18208DF8CF
:100860001B004FF40070ADF8180003208DF81A003B
:1008700006A91F48FFF79CFC48208DF81B004FF489
:100880008060ADF8180006A91948FFF791FC4FF4F5
:10089000165002900020ADF814000C20ADF81200A4
:1008A0000020ADF81000ADF80E00ADF80C0002A964
:1008B000104800F0A7F9012240F225510D4800F040
:1008C0007BF94FF4A060FFF7BDFD25208DF80400F3
:1008D00001208DF807008DF805008DF8060001A8AD
:1008E000FFF778FD0121034800F023F907B000BDB0
:1008F000000801400038014010B504462146054873
:1009000000F0F1F900BF8021024800F01EF9002834
:10091000F9D010BD0038014070B50446002503E051
:10092000605DFFF7E9FF6D1C605D0028F8D170BDC8
:1009300010B500F001F810BD0CB50020019000903A
:100940003348006840F480303149086000BF3048C7
:10095000006800F4003000900198401C019000985D
:1009600018B90198B0F5A06FF1D12948006800F4DA
:10097000003010B10120009001E0002000900098AC
:10098000012843D12348006840F010002149086045
:100990000846006820F0030008600846006840F040
:1009A000020008601A4840681949486008464068D3
:1009B00048600846406840F48060486008464068E7
:1009C00020F47C1048600846406840F4E810486015
:1009D0000846006840F08070086000BF0C4800685E
:1009E00000F000700028F9D00948406820F00300AA
:1009F000074948600846406840F00200486000BF70
:100A00000348406800F00C000828F9D10CBD000034
:100A100000100240002002407047000010B513484B
:100A2000006840F00100114908600846406810491C
:100A300008400E494860084600680E4908400B49C6
:100A400008600846006820F4802008600846406876
:100A500020F4FE0048604FF41F008860FFF768FF35
:100A60004FF000600449086010BD00000010024013
:100A70000000FFF8FFFFF6FE08ED00E010B540F2C1
:100A800025511F4800F06EF8012837D11C4800F0AE
:100A900025F9C4B21B48007828B9402C28D1012080
:100AA0001849087024E01748007801280ED10D2C51
:100AB00003D10220134908701AE013480178007826
:100AC000401C114A10701148445411E00D48007840
:100AD00002280DD10A2C0BD100200A4908700B49BD
:100AE000094A12788854084908700120084908709A
:100AF00040F22551024800F00DF800BF10BD000083
:100B000000380140150000201600002018000020C9
:100B10001400002010B50022002340F66A14A14200
:100B200000D100BF0A1201249440A3B2DC43048028
:100B300010BD21B1828942F40052828104E0828991
:100B40004DF6FF731A408281704702460020B1F5CE
:100B5000007F00D100BF13880B400BB1012000E0E3
:100B60000020704770B502460024002300250020B5
:100B700040F66A16B14200D100BFC1F3421501F040
:100B80001F03012606FA03F3012D02D19689334093
:100B900006E0022D02D1168A334001E0968A3340E6
:100BA0000C12012606FA04F41688344013B10CB175
:100BB000012000E0002070BDF0B5034600240026AF
:100BC0000025002040F66A17B94200D100BF184640
:100BD000C1F3421401F01F06012707FA06F5012CA4
:100BE00001D10C3004E0022C01D1103000E01430AF
:100BF0001AB107682F43076002E00768AF43076038
:100C0000F0BD00002DE9F04786B005460E460024F1
:100C1000A24600BFA1460027B08900B100BF2F4601
:100C20002C8A4CF6FF700440F08804432C82AC8977
:100C30004EF6F3100440B0883189084371890843A7
:100C40000443AC81AC8A4FF6FF400440B0890443B2
:100C5000AC8201A8FFF77EFD1F48874202D1DDF874
:100C600010A001E0DDF80CA0A88900F4004040B11C
:100C70000AEBCA0000EB0A1031684900B0FBF1F83A
:100C800007E00AEBCA0000EB0A1031688900B0FBEC
:100C9000F1F86420B8FBF0F004012009642101FBA5
:100CA0001089A88900F4004040B1322000EBC9004F
:100CB000B0FBF1F000F00700044308E0322000EB45
:100CC00009106421B0FBF1F000F00F0004432C8107
:100CD00006B0BDE8F0870000003801400146888872
:100CE000C0F308007047C1F308028280704700BF5C
:100CF000FEE702E008C8121F08C1002AFAD17047B7
:100D00007047002001E001C1121F002AFBD170478B
:100D1000FFF738FCFFF798FDFFF718FBFFF73CFBE8
:100D200024A201210846FFF7CFFC41E0FFF7E0FADB
:100D3000012802D122A0FFF7EFFDFFF777FD012880
:100D400036D121A201210220FFF7BEFC1EA2012103
:100D50000320FFF7B9FC244A01210220FFF7B4FC6D
:100D600022A12148FFF7DEF950B9FFF70DFB1FA2C2
:100D700001210320FFF7A8FC1CA0FFF7CDFD17E021
:100D80001CA11948FFF7CEF950B9FFF7F5FA19A2DF
:100D900001210320FFF798FC16A0FFF7BDFD07E037
:100DA00016A201210320FFF78FFC14A0FFF7B4FD6A
:100DB000BCE7000052785061636B6574000000006E
:100DC0003938373600000000202020202020202045
:100DD0002020202020202020202020202020202013
:100DE0002020202000000000180000204C45445F17
:100DF0004F4E00004C45445F4F464600434D445F14
:100E00004552524F52000000000000000000000058
:100E10000000000000000000000000F800000000DA
:100E2000000000333000000000100C06100C06001B
:100E3000000000000000000040C07840C078400082
:100E4000043F04043F040400007088FC08300000E4
:100E5000001820FF211E0000F008F000E01800003C
:100E600000211C031E211E0000F0088870000000F5
:100E70001E2123241927211010160E000000000047
:100E80000000000000000000000000E01804020064
:100E9000000000071820400000020418E0000000D5
:100EA0000040201807000000404080F080404000D3
:100EB0000202010F01020200000000F00000000029
:100EC0000101011F010101000000000000000000FD
:100ED00080B0700000000000000000000000000072
:100EE00000010101010101010000000000000000FB
:100EF0000030300000000000000000008060180496
:100F0000006018060100000000E010080810E00072
:100F1000000F102020100F00001010F8000000003B
:100F20000020203F20200000007008080888700082
:100F30000030282422213000003008888848300002
:100F40000018202020110E000000C02010F8000022
:100F500000070424243F240000F8088888080800BB
:100F60000019212020110E0000E0108888180000D0
:100F7000000F112020110E0000380808C8380800A2
:100F80000000003F00000000007088080888700022
:100F9000001C222121221C0000E010080810E000A3
:100FA0000000312222110F00000000C0C00000002C
:100FB0000000003030000000000000800000000051
:100FC0000000806000000000000080402010080049
:100FD0000001020408102000404040404040400012
:100FE00004040404040404000008102040800000ED
:100FF0000020100804020100007048080808F000F2
:101000000000003036010000C030C828E810E000C1
:101010000718272423140B000000C038E00000004C
:10102000203C23020227382008F8888888700000B6
:10103000203F202020110E00C0300808080838008A
:10104000071820202010080008F808080810E00001
:10105000203F202020100F0008F88888E8081000A2
:10106000203F20202320180008F88888E808100076
:10107000203F200003000000C030080808380000AE
:1010800007182020221E020008F808000008F808AF
:10109000203F210101213F20000808F80808000036
:1010A0000020203F2020000000000808F808080069
:1010B000C08080807F00000008F888C028180800E1
:1010C000203F20012638200008F80800000000001A
:1010D000203F20202020300008F8F800F8F8080011
:1010E000203F003F003F200008F830C00008F8080B
:1010F000203F200007183F00E01008080810E0001B
:101100000F10202020100F0008F808080808F00031
:10111000203F210101010000E01008080810E00054
:101120000F18242438504F0008F8888888887000E9
:10113000203F2000030C3020007088080808380089
:101140000038202121221C00180808F8080818007F
:101150000000203F2000000008F808000008F80800
:10116000001F202020201F000878880000C83808B1
:10117000000007380E010000F80800F80008F80029
:10118000033C0700073C03000818688080681808C3
:1011900020302C03032C30200838C800C838080041
:1011A0000000203F2000000010080808C838080090
:1011B0002038262120201800000000FE0202020034
:1011C0000000007F40404000000C30C000000000E4
:1011D000000000010638C00000020202FE0000000C
:1011E000004040407F0000000000040202020400B2
:1011F00000000000000000000000000000000000EF
:1012000080808080808080800002020400000000D6
:1012100000000000000000000000808080800000CE
:101220000019242222223F2008F8008080000000BC
:10123000003F112020110E0000000080808000007F
:10124000000E112020201100000000808088F8008E
:10125000000E112020103F200000808080800000C0
:10126000001F222222221300008080F08888881824
:101270000020203F2020000000008080808080002F
:10128000006B94949493600008F8008080800000C4
:10129000203F210000203F2000809898000000009F
:1012A0000020203F202000000000008098980000CF
:1012B00000C08080807F000008F8000080808000EF
:1012C000203F24022D302000000808F80000000014
:1012D0000020203F202000008080808080808000CF
:1012E000203F20003F20003F808000808080000061
:1012F000203F210000203F200000808080800000EF
:10130000001F202020201F0080800080800000001F
:1013100080FFA12020110E0000000080808080004E
:10132000000E112020A0FF8080808000808080003F
:1013300020203F212000010000008080808080006C
:101340000033242424241900008080E080800000E1
:101350000000001F2020000080800000008080002E
:10136000001F202020103F2080808000008080808F
:1013700000010E300806010080800080008080801F
:101380000F300C030C300F00008080008080800044
:101390000020312E0E31200080808000008080806F
:1013A00080818E701806010000808080808080001F
:1013B0000021302C2221300000000000807C02023D
:1013C00000000000003F404000000000FF0000005F
:1013D00000000000FF0000000002027C800000000E
:1013E0000040403F0000000000060101020204042A
:1013F0000000000000000000181400080000002099
:1014000018000000F20C000830140008180000203A
:1014100068040000020D000800000000010203043F
:101420000102030406070809020406080000000080
:04000005080000ED02
:00000001FF
